{
    "contractName": "SwappaRouterV1",
    "abi": [
        {
            "anonymous": false,
            "inputs": [
                {
                    "indexed": true,
                    "internalType": "address",
                    "name": "sender",
                    "type": "address"
                },
                {
                    "indexed": false,
                    "internalType": "address",
                    "name": "to",
                    "type": "address"
                },
                {
                    "indexed": true,
                    "internalType": "address",
                    "name": "input",
                    "type": "address"
                },
                {
                    "indexed": true,
                    "internalType": "address",
                    "name": "output",
                    "type": "address"
                },
                {
                    "indexed": false,
                    "internalType": "uint256",
                    "name": "inputAmount",
                    "type": "uint256"
                },
                {
                    "indexed": false,
                    "internalType": "uint256",
                    "name": "outputAmount",
                    "type": "uint256"
                }
            ],
            "name": "Swap",
            "type": "event"
        },
        {
            "stateMutability": "payable",
            "type": "receive"
        },
        {
            "inputs": [
                {
                    "internalType": "address[]",
                    "name": "path",
                    "type": "address[]"
                },
                {
                    "internalType": "address[]",
                    "name": "pairs",
                    "type": "address[]"
                },
                {
                    "internalType": "bytes[]",
                    "name": "extras",
                    "type": "bytes[]"
                },
                {
                    "internalType": "uint256",
                    "name": "inputAmount",
                    "type": "uint256"
                }
            ],
            "name": "getOutputAmount",
            "outputs": [
                {
                    "internalType": "uint256",
                    "name": "outputAmount",
                    "type": "uint256"
                }
            ],
            "stateMutability": "view",
            "type": "function"
        },
        {
            "inputs": [
                {
                    "internalType": "address[]",
                    "name": "path",
                    "type": "address[]"
                },
                {
                    "internalType": "address[]",
                    "name": "pairs",
                    "type": "address[]"
                },
                {
                    "internalType": "bytes[]",
                    "name": "extras",
                    "type": "bytes[]"
                },
                {
                    "internalType": "uint256",
                    "name": "inputAmount",
                    "type": "uint256"
                },
                {
                    "internalType": "uint256",
                    "name": "minOutputAmount",
                    "type": "uint256"
                },
                {
                    "internalType": "address",
                    "name": "to",
                    "type": "address"
                },
                {
                    "internalType": "uint256",
                    "name": "deadline",
                    "type": "uint256"
                }
            ],
            "name": "swapExactInputForOutput",
            "outputs": [
                {
                    "internalType": "uint256",
                    "name": "outputAmount",
                    "type": "uint256"
                }
            ],
            "stateMutability": "nonpayable",
            "type": "function"
        },
        {
            "inputs": [
                {
                    "internalType": "address[]",
                    "name": "path",
                    "type": "address[]"
                },
                {
                    "internalType": "address[]",
                    "name": "pairs",
                    "type": "address[]"
                },
                {
                    "internalType": "bytes[]",
                    "name": "extras",
                    "type": "bytes[]"
                },
                {
                    "internalType": "uint256",
                    "name": "inputAmount",
                    "type": "uint256"
                },
                {
                    "internalType": "uint256",
                    "name": "minOutputAmount",
                    "type": "uint256"
                },
                {
                    "internalType": "address",
                    "name": "to",
                    "type": "address"
                },
                {
                    "internalType": "uint256",
                    "name": "deadline",
                    "type": "uint256"
                }
            ],
            "name": "swapExactInputForOutputWithPrecheck",
            "outputs": [
                {
                    "internalType": "uint256",
                    "name": "outputAmount",
                    "type": "uint256"
                }
            ],
            "stateMutability": "nonpayable",
            "type": "function"
        }
    ],
    "bytecode": "0x608060405234801561001057600080fd5b50611405806100206000396000f3fe6080604052600436106100385760003560e01c80630862d12f14610044578063adf6fa021461007a578063e2f46a001461009a5761003f565b3661003f57005b600080fd5b34801561005057600080fd5b5061006461005f366004610d8f565b6100ba565b6040516100719190611361565b60405180910390f35b34801561008657600080fd5b50610064610095366004610d8f565b610666565b3480156100a657600080fd5b506100646100b5366004610cf0565b610b29565b600081428110156100e65760405162461bcd60e51b81526004016100dd90611213565b60405180910390fd5b600189018b146101085760405162461bcd60e51b81526004016100dd906112a7565b8887146101275760405162461bcd60e51b81526004016100dd9061124a565b886101445760405162461bcd60e51b81526004016100dd9061109f565b8b8b600081811061015157fe5b90506020020160208101906101669190610cce565b73ffffffffffffffffffffffffffffffffffffffff166323b872dd338c8c600081811061018f57fe5b90506020020160208101906101a49190610cce565b896040518463ffffffff1660e01b81526004016101c393929190610f14565b602060405180830381600087803b1580156101dd57600080fd5b505af11580156101f1573d6000803e3d6000fd5b505050506040513d601f19601f820116820180604052508101906102159190610e52565b6102315760405162461bcd60e51b81526004016100dd906110fc565b60005b898110156103e6576000808e8e8481811061024b57fe5b90506020020160208101906102609190610cce565b8f8f8560010181811061026f57fe5b90506020020160208101906102849190610cce565b909250905060007fffffffffffffffffffffffffffffffffffffffffffffffffffffffffffffffff8d0184106102ba57306102de565b8d8d856001018181106102c957fe5b90506020020160208101906102de9190610cce565b905060608c8c868181106102ee57fe5b9050602002810190610300919061136a565b8080601f016020809104026020016040519081016040528093929190818152602001838380828437600081840152601f19601f8201169050808301925050505050505090508e8e8681811061035157fe5b90506020020160208101906103669190610cce565b73ffffffffffffffffffffffffffffffffffffffff166332ef8314858585856040518563ffffffff1660e01b81526004016103a49493929190610f45565b600060405180830381600087803b1580156103be57600080fd5b505af11580156103d2573d6000803e3d6000fd5b505060019096019550610234945050505050565b5060008c8c7fffffffffffffffffffffffffffffffffffffffffffffffffffffffffffffffff810181811061041757fe5b905060200201602081019061042c9190610cce565b6040517f70a0823100000000000000000000000000000000000000000000000000000000815290915073ffffffffffffffffffffffffffffffffffffffff8216906370a0823190610481903090600401610ef3565b60206040518083038186803b15801561049957600080fd5b505afa1580156104ad573d6000803e3d6000fd5b505050506040513d601f19601f820116820180604052508101906104d19190610e72565b9250858310156104f35760405162461bcd60e51b81526004016100dd90611304565b6040517fa9059cbb00000000000000000000000000000000000000000000000000000000815273ffffffffffffffffffffffffffffffffffffffff82169063a9059cbb90610547908890879060040161104b565b602060405180830381600087803b15801561056157600080fd5b505af1158015610575573d6000803e3d6000fd5b505050506040513d601f19601f820116820180604052508101906105999190610e52565b6105b55760405162461bcd60e51b81526004016100dd906111b6565b8073ffffffffffffffffffffffffffffffffffffffff168d8d60008181106105d957fe5b90506020020160208101906105ee9190610cce565b73ffffffffffffffffffffffffffffffffffffffff163373ffffffffffffffffffffffffffffffffffffffff167f20efd6d5195b7b50273f01cd79a27989255356f9f13293edc53ee142accfdb75888b8860405161064e93929190611071565b60405180910390a450509a9950505050505050505050565b600081428110156106895760405162461bcd60e51b81526004016100dd90611213565b600189018b146106ab5760405162461bcd60e51b81526004016100dd906112a7565b8887146106ca5760405162461bcd60e51b81526004016100dd9061124a565b886106e75760405162461bcd60e51b81526004016100dd9061109f565b85915060005b89811015610866576000808e8e8481811061070457fe5b90506020020160208101906107199190610cce565b8f8f8560010181811061072857fe5b905060200201602081019061073d9190610cce565b9150915060608b8b8581811061074f57fe5b9050602002810190610761919061136a565b8080601f016020809104026020016040519081016040528093929190818152602001838380828437600081840152601f19601f8201169050808301925050505050505090508d8d858181106107b257fe5b90506020020160208101906107c79190610cce565b73ffffffffffffffffffffffffffffffffffffffff16637eace892848489856040518563ffffffff1660e01b8152600401610805949392919061100c565b60206040518083038186803b15801561081d57600080fd5b505afa158015610831573d6000803e3d6000fd5b505050506040513d601f19601f820116820180604052508101906108559190610e72565b955050600190920191506106ed9050565b50848210156108875760405162461bcd60e51b81526004016100dd90611159565b8b8b600081811061089457fe5b90506020020160208101906108a99190610cce565b73ffffffffffffffffffffffffffffffffffffffff166323b872dd338c8c60008181106108d257fe5b90506020020160208101906108e79190610cce565b896040518463ffffffff1660e01b815260040161090693929190610f14565b602060405180830381600087803b15801561092057600080fd5b505af1158015610934573d6000803e3d6000fd5b505050506040513d601f19601f820116820180604052508101906109589190610e52565b6109745760405162461bcd60e51b81526004016100dd906110fc565b60005b898110156103e6576000808e8e8481811061098e57fe5b90506020020160208101906109a39190610cce565b8f8f856001018181106109b257fe5b90506020020160208101906109c79190610cce565b909250905060007fffffffffffffffffffffffffffffffffffffffffffffffffffffffffffffffff8d0184106109fd5730610a21565b8d8d85600101818110610a0c57fe5b9050602002016020810190610a219190610cce565b905060608c8c86818110610a3157fe5b9050602002810190610a43919061136a565b8080601f016020809104026020016040519081016040528093929190818152602001838380828437600081840152601f19601f8201169050808301925050505050505090508e8e86818110610a9457fe5b9050602002016020810190610aa99190610cce565b73ffffffffffffffffffffffffffffffffffffffff166332ef8314858585856040518563ffffffff1660e01b8152600401610ae79493929190610f45565b600060405180830381600087803b158015610b0157600080fd5b505af1158015610b15573d6000803e3d6000fd5b505060019096019550610977945050505050565b8060005b85811015610c4f57868682818110610b4157fe5b9050602002016020810190610b569190610cce565b73ffffffffffffffffffffffffffffffffffffffff16637eace8928a8a84818110610b7d57fe5b9050602002016020810190610b929190610cce565b8b8b85600101818110610ba157fe5b9050602002016020810190610bb69190610cce565b85898987818110610bc357fe5b9050602002810190610bd5919061136a565b6040518663ffffffff1660e01b8152600401610bf5959493929190610f90565b60206040518083038186803b158015610c0d57600080fd5b505afa158015610c21573d6000803e3d6000fd5b505050506040513d601f19601f82011682018060405250810190610c459190610e72565b9150600101610b2d565b50979650505050505050565b803573ffffffffffffffffffffffffffffffffffffffff81168114610c7f57600080fd5b92915050565b60008083601f840112610c96578182fd5b50813567ffffffffffffffff811115610cad578182fd5b6020830191508360208083028501011115610cc757600080fd5b9250929050565b600060208284031215610cdf578081fd5b610ce98383610c5b565b9392505050565b60008060008060008060006080888a031215610d0a578283fd5b873567ffffffffffffffff80821115610d21578485fd5b610d2d8b838c01610c85565b909950975060208a0135915080821115610d45578485fd5b610d518b838c01610c85565b909750955060408a0135915080821115610d69578485fd5b50610d768a828b01610c85565b989b979a50959894979596606090950135949350505050565b60008060008060008060008060008060e08b8d031215610dad578283fd5b8a3567ffffffffffffffff80821115610dc4578485fd5b610dd08e838f01610c85565b909c509a5060208d0135915080821115610de8578485fd5b610df48e838f01610c85565b909a50985060408d0135915080821115610e0c578485fd5b50610e198d828e01610c85565b90975095505060608b0135935060808b01359250610e3a8c60a08d01610c5b565b915060c08b013590509295989b9194979a5092959850565b600060208284031215610e63578081fd5b81518015158114610ce9578182fd5b600060208284031215610e83578081fd5b5051919050565b60008151808452815b81811015610eaf57602081850181015186830182015201610e93565b81811115610ec05782602083870101525b50601f017fffffffffffffffffffffffffffffffffffffffffffffffffffffffffffffffe0169290920160200192915050565b73ffffffffffffffffffffffffffffffffffffffff91909116815260200190565b73ffffffffffffffffffffffffffffffffffffffff9384168152919092166020820152604081019190915260600190565b600073ffffffffffffffffffffffffffffffffffffffff8087168352808616602084015280851660408401525060806060830152610f866080830184610e8a565b9695505050505050565b600073ffffffffffffffffffffffffffffffffffffffff808816835280871660208401525084604083015260806060830152826080830152828460a084013781830160a090810191909152601f9092017fffffffffffffffffffffffffffffffffffffffffffffffffffffffffffffffe0160101949350505050565b600073ffffffffffffffffffffffffffffffffffffffff808716835280861660208401525083604083015260806060830152610f866080830184610e8a565b73ffffffffffffffffffffffffffffffffffffffff929092168252602082015260400190565b73ffffffffffffffffffffffffffffffffffffffff9390931683526020830191909152604082015260600190565b6020808252602a908201527f537761707061526f757465723a204d7573742068617665206174206c6561737460408201527f206f6e6520706169722100000000000000000000000000000000000000000000606082015260800190565b6020808252602a908201527f537761707061526f757465723a20496e697469616c207472616e73666572467260408201527f6f6d206661696c65642100000000000000000000000000000000000000000000606082015260800190565b60208082526032908201527f537761707061526f757465723a20496e73756666696369656e7420657870656360408201527f746564206f757470757420616d6f756e74210000000000000000000000000000606082015260800190565b60208082526024908201527f537761707061526f757465723a2046696e616c207472616e736665722066616960408201527f6c65642100000000000000000000000000000000000000000000000000000000606082015260800190565b60208082526016908201527f537761707061526f757465723a20457870697265642100000000000000000000604082015260600190565b60208082526028908201527f537761707061526f757465723a20506169727320616e6420457874726173206d60408201527f69736d6174636821000000000000000000000000000000000000000000000000606082015260800190565b60208082526026908201527f537761707061526f757465723a205061746820616e64205061697273206d697360408201527f6d61746368210000000000000000000000000000000000000000000000000000606082015260800190565b60208082526029908201527f537761707061526f757465723a20496e73756666696369656e74206f7574707560408201527f7420616d6f756e74210000000000000000000000000000000000000000000000606082015260800190565b90815260200190565b60008083357fffffffffffffffffffffffffffffffffffffffffffffffffffffffffffffffe184360301811261139e578283fd5b8084018035925067ffffffffffffffff8311156113b9578384fd5b60200192505036819003821315610cc757600080fdfea26469706673582212201e585da0598bf9a6869adca5a70dc83852b7ec4af3fe23ce3fa40ac4a72c9b5b64736f6c63430006080033",
    "immutableReferences": {},
    "source": "// SPDX-License-Identifier: MIT\npragma solidity 0.6.8;\npragma experimental ABIEncoderV2;\n\nimport \"@openzeppelin/contracts/token/ERC20/ERC20.sol\";\nimport \"./ISwappaPairV1.sol\";\nimport \"./ISwappaRouterV1.sol\";\n\ncontract SwappaRouterV1 is ISwappaRouterV1 {\n\tevent Swap(\n\t\taddress indexed sender,\n\t\taddress to,\n\t\taddress indexed input,\n\t\taddress indexed output,\n\t\tuint256 inputAmount,\n\t\tuint256 outputAmount\n\t);\n\n\tmodifier ensure(uint deadline) {\n\t\trequire(deadline >= block.timestamp, 'SwappaRouter: Expired!');\n\t\t_;\n\t}\n\n\tfunction getOutputAmount(\n\t\taddress[] calldata path,\n\t\taddress[] calldata pairs,\n\t\tbytes[] calldata extras,\n\t\tuint256 inputAmount\n\t) external override view returns (uint256 outputAmount) {\n\t\toutputAmount = inputAmount;\n\t\tfor (uint i; i < pairs.length; i++) {\n\t\t\toutputAmount =\n\t\t\t\tISwappaPairV1(pairs[i]).getOutputAmount(path[i], path[i+1], outputAmount, extras[i]);\n\t\t}\n\t}\n\n\tfunction swapExactInputForOutput(\n\t\taddress[] calldata path,\n\t\taddress[] calldata pairs,\n\t\tbytes[] calldata extras,\n\t\tuint256 inputAmount,\n\t\tuint256 minOutputAmount,\n\t\taddress to,\n\t\tuint deadline\n\t) external override ensure(deadline) returns (uint256 outputAmount) {\n\t\trequire(path.length == pairs.length + 1 , \"SwappaRouter: Path and Pairs mismatch!\");\n\t\trequire(pairs.length == extras.length, \"SwappaRouter: Pairs and Extras mismatch!\");\n\t\trequire(pairs.length > 0, \"SwappaRouter: Must have at least one pair!\");\n\n\t\trequire(\n\t\t\tERC20(path[0]).transferFrom(msg.sender, pairs[0], inputAmount),\n\t\t\t\"SwappaRouter: Initial transferFrom failed!\");\n\t\tfor (uint i; i < pairs.length; i++) {\n\t\t\t(address pairInput, address pairOutput) = (path[i], path[i + 1]);\n\t\t\taddress next = i < pairs.length - 1 ? pairs[i+1] : address(this);\n\t\t\tbytes memory data = extras[i];\n\t\t\tISwappaPairV1(pairs[i]).swap(pairInput, pairOutput, next, data);\n\t\t}\n\t\t// Perform final output check in the router as a final safeguard to make sure\n\t\t// minOutputAmount restriction is honored no matter what.\n\t\taddress output = path[path.length - 1];\n\t\toutputAmount = ERC20(output).balanceOf(address(this));\n\t\trequire(\n\t\t\toutputAmount >= minOutputAmount, \"SwappaRouter: Insufficient output amount!\");\n\t\trequire(\n\t\t\tERC20(output).transfer(to, outputAmount),\n\t\t\t\"SwappaRouter: Final transfer failed!\");\n\t\temit Swap(msg.sender, to, path[0], output, inputAmount, outputAmount);\n\t}\n\n\tfunction swapExactInputForOutputWithPrecheck(\n\t\taddress[] calldata path,\n\t\taddress[] calldata pairs,\n\t\tbytes[] calldata extras,\n\t\tuint256 inputAmount,\n\t\tuint256 minOutputAmount,\n\t\taddress to,\n\t\tuint deadline\n\t) external override ensure(deadline) returns (uint256 outputAmount) {\n\t\trequire(path.length == pairs.length + 1 , \"SwappaRouter: Path and Pairs mismatch!\");\n\t\trequire(pairs.length == extras.length, \"SwappaRouter: Pairs and Extras mismatch!\");\n\t\trequire(pairs.length > 0, \"SwappaRouter: Must have at least one pair!\");\n\n\t\t// Note(zviadm): Full code copying is necessary because `bytes[]` arrays can not easily be\n\t\t// passed around between `calldata` and `memory` locations. Manual copying would be necessary\n\t\t// with quite a bit of annoying code to work around stack issues.\n\n\t\t{\n\t\t\toutputAmount = inputAmount; // reuse outputAmount variable to avoid \"stack too deep\" errors.\n\t\t\tfor (uint i; i < pairs.length; i++) {\n\t\t\t\t(address input, address output) = (path[i], path[i+1]);\n\t\t\t\tbytes memory data = extras[i];\n\t\t\t\toutputAmount =\n\t\t\t\t\tISwappaPairV1(pairs[i]).getOutputAmount(input, output, outputAmount, data);\n\t\t\t}\n\t\t\trequire(\n\t\t\t\toutputAmount >= minOutputAmount,\n\t\t\t\t\"SwappaRouter: Insufficient expected output amount!\");\n\t\t}\n\n\t\trequire(\n\t\t\tERC20(path[0]).transferFrom(msg.sender, pairs[0], inputAmount),\n\t\t\t\"SwappaRouter: Initial transferFrom failed!\");\n\t\tfor (uint i; i < pairs.length; i++) {\n\t\t\t(address pairInput, address pairOutput) = (path[i], path[i + 1]);\n\t\t\taddress next = i < pairs.length - 1 ? pairs[i+1] : address(this);\n\t\t\tbytes memory data = extras[i];\n\t\t\tISwappaPairV1(pairs[i]).swap(pairInput, pairOutput, next, data);\n\t\t}\n\t\t// Perform final output check in the router as a final safeguard to make sure\n\t\t// minOutputAmount restriction is honored no matter what.\n\t\taddress output = path[path.length - 1];\n\t\toutputAmount = ERC20(output).balanceOf(address(this));\n\t\trequire(\n\t\t\toutputAmount >= minOutputAmount, \"SwappaRouter: Insufficient output amount!\");\n\t\trequire(\n\t\t\tERC20(output).transfer(to, outputAmount),\n\t\t\t\"SwappaRouter: Final transfer failed!\");\n\t\temit Swap(msg.sender, to, path[0], output, inputAmount, outputAmount);\n\t}\n\n\treceive() external payable {}\n}",
    "sourcePath": "/Users/dylanmooers/Code/OpenCeloProjects/Mobius/swappa/contracts/swappa/SwappaRouterV1.sol",
    "compiler": {
        "name": "solc",
        "version": "0.6.8+commit.0bbfe453.Emscripten.clang"
    },
    "schemaVersion": "3.4.4",
    "updatedAt": "2022-04-16T17:01:07.586Z",
    "devdoc": {
        "methods": {}
    },
    "userdoc": {
        "methods": {}
    }
}