{
  "contractName": "PairSavingsCELO",
  "abi": [
    {
      "stateMutability": "payable",
      "type": "receive"
    },
    {
      "inputs": [
        {
          "internalType": "address",
          "name": "input",
          "type": "address"
        },
        {
          "internalType": "address",
          "name": "output",
          "type": "address"
        },
        {
          "internalType": "address",
          "name": "to",
          "type": "address"
        },
        {
          "internalType": "bytes",
          "name": "data",
          "type": "bytes"
        }
      ],
      "name": "swap",
      "outputs": [],
      "stateMutability": "nonpayable",
      "type": "function"
    },
    {
      "inputs": [
        {
          "internalType": "address",
          "name": "input",
          "type": "address"
        },
        {
          "internalType": "address",
          "name": "output",
          "type": "address"
        },
        {
          "internalType": "uint256",
          "name": "amountIn",
          "type": "uint256"
        },
        {
          "internalType": "bytes",
          "name": "data",
          "type": "bytes"
        }
      ],
      "name": "getOutputAmount",
      "outputs": [
        {
          "internalType": "uint256",
          "name": "amountOut",
          "type": "uint256"
        }
      ],
      "stateMutability": "view",
      "type": "function"
    }
  ],
  "bytecode": "0x608060405234801561001057600080fd5b5061065c806100206000396000f3fe60806040526004361061002d5760003560e01c806332ef8314146100395780637eace892146100e657610034565b3661003457005b600080fd5b34801561004557600080fd5b506100e46004803603608081101561005c57600080fd5b73ffffffffffffffffffffffffffffffffffffffff823581169260208101358216926040820135909216918101906080810160608201356401000000008111156100a557600080fd5b8201836020820111156100b757600080fd5b803590602001918460018302840111640100000000831117156100d957600080fd5b5090925090506101a2565b005b3480156100f257600080fd5b506101906004803603608081101561010957600080fd5b73ffffffffffffffffffffffffffffffffffffffff82358116926020810135909116916040820135919081019060808101606082013564010000000081111561015157600080fd5b82018360208201111561016357600080fd5b8035906020019184600183028401116401000000008311171561018557600080fd5b509092509050610425565b60408051918252519081900360200190f35b60006101e383838080601f01602080910402602001604051908101604052809392919081815260200183838082843760009201919091525061058b92505050565b604080517f70a08231000000000000000000000000000000000000000000000000000000008152306004820152905191925060009173ffffffffffffffffffffffffffffffffffffffff8916916370a08231916024808301926020929190829003018186803b15801561025557600080fd5b505afa158015610269573d6000803e3d6000fd5b505050506040513d602081101561027f57600080fd5b5051604080517fd0e30db0000000000000000000000000000000000000000000000000000000008152905191925060009173ffffffffffffffffffffffffffffffffffffffff85169163d0e30db091859160048082019260209290919082900301818588803b1580156102f157600080fd5b505af1158015610305573d6000803e3d6000fd5b50505050506040513d602081101561031c57600080fd5b5051604080517fa9059cbb00000000000000000000000000000000000000000000000000000000815273ffffffffffffffffffffffffffffffffffffffff89811660048301526024820184905291519293509089169163a9059cbb916044808201926020929091908290030181600087803b15801561039a57600080fd5b505af11580156103ae573d6000803e3d6000fd5b505050506040513d60208110156103c457600080fd5b505161041b576040517f08c379a00000000000000000000000000000000000000000000000000000000081526004018080602001828103825260218152602001806106066021913960400191505060405180910390fd5b5050505050505050565b60008061046784848080601f01602080910402602001604051908101604052809392919081815260200183838082843760009201919091525061058b92505050565b90508073ffffffffffffffffffffffffffffffffffffffff168673ffffffffffffffffffffffffffffffffffffffff161461050357604080517f08c379a000000000000000000000000000000000000000000000000000000000815260206004820181905260248201527f50616972536176696e677343454c4f3a20696e76616c6964206f757470757421604482015290519081900360640190fd5b8073ffffffffffffffffffffffffffffffffffffffff16635cefc85e866040518263ffffffff1660e01b81526004018082815260200191505060206040518083038186803b15801561055457600080fd5b505afa158015610568573d6000803e3d6000fd5b505050506040513d602081101561057e57600080fd5b5051979650505050505050565b600081516014146105fd57604080517f08c379a000000000000000000000000000000000000000000000000000000000815260206004820152601e60248201527f50616972536176696e677343454c4f3a20696e76616c69642064617461210000604482015290519081900360640190fd5b50601401519056fe50616972536176696e677343454c4f3a207472616e73666572206661696c656421a26469706673582212205494bbcf8edbe9b07fffe03748411ba45fd6a16854fc3a9576e17fe8d512e39264736f6c63430006080033",
  "immutableReferences": {},
  "source": "// SPDX-License-Identifier: MIT\npragma solidity 0.6.8;\n\nimport \"@openzeppelin/contracts/math/SafeMath.sol\";\nimport \"@openzeppelin/contracts/token/ERC20/ERC20.sol\";\nimport \"./ISwappaPairV1.sol\";\n\ninterface ISavingsCELO {\n\tfunction deposit() external payable returns (uint256 toMint);\n\tfunction celoToSavings(uint256 celoAmount) external view returns (uint256);\n\tfunction savingsToCELO(uint256 savingsAmount) external view returns (uint256);\n}\n\ncontract PairSavingsCELO is ISwappaPairV1 {\n\tusing SafeMath for uint;\n\n\tfunction swap(\n\t\taddress input,\n\t\taddress output,\n\t\taddress to,\n\t\tbytes calldata data\n\t) external override {\n\t\taddress savingsCELOAddr = parseData(data);\n\t\tuint inputAmount = ERC20(input).balanceOf(address(this));\n\t\tuint outputAmount = ISavingsCELO(savingsCELOAddr).deposit{value: inputAmount}();\n\t\trequire(\n\t\t\tERC20(output).transfer(to, outputAmount),\n\t\t\t\"PairSavingsCELO: transfer failed!\");\n\t}\n\n\tfunction parseData(bytes memory data) private pure returns (address savingsCELOAddr) {\n\t\trequire(data.length == 20, \"PairSavingsCELO: invalid data!\");\n    assembly {\n      savingsCELOAddr := mload(add(data, 20))\n    }\n\t}\n\n\tfunction getOutputAmount(\n\t\taddress input,\n\t\taddress output,\n\t\tuint amountIn,\n\t\tbytes calldata data\n\t) external view override returns (uint amountOut) {\n\t\taddress savingsCELOAddr = parseData(data);\n\t\trequire(output == savingsCELOAddr, \"PairSavingsCELO: invalid output!\");\n\t\treturn ISavingsCELO(savingsCELOAddr).celoToSavings(amountIn);\n\t}\n\n\treceive() external payable {}\n}\n",
  "sourcePath": "/Users/dylanmooers/Code/OpenCeloProjects/Mobius/swappa/contracts/swappa/PairSavingsCELO.sol",
  "compiler": {
    "name": "solc",
    "version": "0.6.8+commit.0bbfe453.Emscripten.clang"
  },
  "schemaVersion": "3.4.4",
  "updatedAt": "2022-04-16T17:01:07.580Z",
  "devdoc": {
    "methods": {}
  },
  "userdoc": {
    "methods": {}
  }
}