{
  "contractName": "PairAToken",
  "abi": [
    {
      "stateMutability": "payable",
      "type": "receive"
    },
    {
      "inputs": [
        {
          "internalType": "address",
          "name": "input",
          "type": "address"
        },
        {
          "internalType": "address",
          "name": "output",
          "type": "address"
        },
        {
          "internalType": "address",
          "name": "to",
          "type": "address"
        },
        {
          "internalType": "bytes",
          "name": "data",
          "type": "bytes"
        }
      ],
      "name": "swap",
      "outputs": [],
      "stateMutability": "nonpayable",
      "type": "function"
    },
    {
      "inputs": [
        {
          "internalType": "address",
          "name": "input",
          "type": "address"
        },
        {
          "internalType": "address",
          "name": "output",
          "type": "address"
        },
        {
          "internalType": "uint256",
          "name": "amountIn",
          "type": "uint256"
        },
        {
          "internalType": "bytes",
          "name": "data",
          "type": "bytes"
        }
      ],
      "name": "getOutputAmount",
      "outputs": [
        {
          "internalType": "uint256",
          "name": "amountOut",
          "type": "uint256"
        }
      ],
      "stateMutability": "view",
      "type": "function"
    }
  ],
  "bytecode": "0x608060405234801561001057600080fd5b50610904806100206000396000f3fe60806040526004361061002d5760003560e01c806332ef8314146100395780637eace892146100e657610034565b3661003457005b600080fd5b34801561004557600080fd5b506100e46004803603608081101561005c57600080fd5b73ffffffffffffffffffffffffffffffffffffffff823581169260208101358216926040820135909216918101906080810160608201356401000000008111156100a557600080fd5b8201836020820111156100b757600080fd5b803590602001918460018302840111640100000000831117156100d957600080fd5b5090925090506101a2565b005b3480156100f257600080fd5b506101906004803603608081101561010957600080fd5b73ffffffffffffffffffffffffffffffffffffffff82358116926020810135909116916040820135919081019060808101606082013564010000000081111561015157600080fd5b82018360208201111561016357600080fd5b8035906020019184600183028401116401000000008311171561018557600080fd5b50909250905061082c565b60408051918252519081900360200190f35b6000806101e484848080601f01602080910402602001604051908101604052809392919081815260200183838082843760009201919091525061083592505050565b9150915060008773ffffffffffffffffffffffffffffffffffffffff166370a08231306040518263ffffffff1660e01b8152600401808273ffffffffffffffffffffffffffffffffffffffff1673ffffffffffffffffffffffffffffffffffffffff16815260200191505060206040518083038186803b15801561026757600080fd5b505afa15801561027b573d6000803e3d6000fd5b505050506040513d602081101561029157600080fd5b50519050600160ff83161415610311578773ffffffffffffffffffffffffffffffffffffffff1663db006a75826040518263ffffffff1660e01b815260040180828152602001915050600060405180830381600087803b1580156102f457600080fd5b505af1158015610308573d6000803e3d6000fd5b50505050610704565b8160ff16600214156104425760008373ffffffffffffffffffffffffffffffffffffffff16630261bf8b6040518163ffffffff1660e01b815260040160206040518083038186803b15801561036557600080fd5b505afa158015610379573d6000803e3d6000fd5b505050506040513d602081101561038f57600080fd5b5051604080517fd2d0e06600000000000000000000000000000000000000000000000000000000815273eeeeeeeeeeeeeeeeeeeeeeeeeeeeeeeeeeeeeeee600482015260248101859052600060448201819052915192935073ffffffffffffffffffffffffffffffffffffffff84169263d2d0e0669286926064808201939182900301818588803b15801561042357600080fd5b505af1158015610437573d6000803e3d6000fd5b505050505050610704565b8160ff16600314156107045760008373ffffffffffffffffffffffffffffffffffffffff16630261bf8b6040518163ffffffff1660e01b815260040160206040518083038186803b15801561049657600080fd5b505afa1580156104aa573d6000803e3d6000fd5b505050506040513d60208110156104c057600080fd5b5051604080517fed6ff760000000000000000000000000000000000000000000000000000000008152905191925060009173ffffffffffffffffffffffffffffffffffffffff87169163ed6ff760916004808301926020929190829003018186803b15801561052e57600080fd5b505afa158015610542573d6000803e3d6000fd5b505050506040513d602081101561055857600080fd5b5051604080517f095ea7b300000000000000000000000000000000000000000000000000000000815273ffffffffffffffffffffffffffffffffffffffff8084166004830152602482018790529151929350908c169163095ea7b3916044808201926020929091908290030181600087803b1580156105d657600080fd5b505af11580156105ea573d6000803e3d6000fd5b505050506040513d602081101561060057600080fd5b505161066d57604080517f08c379a000000000000000000000000000000000000000000000000000000000815260206004820152601b60248201527f5061697241546f6b656e3a20617070726f7665206661696c6564210000000000604482015290519081900360640190fd5b604080517fd2d0e06600000000000000000000000000000000000000000000000000000000815273ffffffffffffffffffffffffffffffffffffffff8c811660048301526024820186905260006044830181905292519085169263d2d0e066926064808201939182900301818387803b1580156106e957600080fd5b505af11580156106fd573d6000803e3d6000fd5b5050505050505b8673ffffffffffffffffffffffffffffffffffffffff1663a9059cbb87836040518363ffffffff1660e01b8152600401808373ffffffffffffffffffffffffffffffffffffffff1673ffffffffffffffffffffffffffffffffffffffff16815260200182815260200192505050602060405180830381600087803b15801561078b57600080fd5b505af115801561079f573d6000803e3d6000fd5b505050506040513d60208110156107b557600080fd5b505161082257604080517f08c379a000000000000000000000000000000000000000000000000000000000815260206004820152601c60248201527f5061697241546f6b656e3a207472616e73666572206661696c65642100000000604482015290519081900360640190fd5b5050505050505050565b50909392505050565b60008082516015146108a857604080517f08c379a000000000000000000000000000000000000000000000000000000000815260206004820152601960248201527f5061697241546f6b656e3a20696e76616c696420646174612100000000000000604482015290519081900360640190fd5b826014815181106108b557fe5b0160200151601493909301519360f89390931c9291505056fea2646970667358221220ed16aef03c88f6d87037d17a0c907a9ffbc9d563e85ce2b31da7476a69c7fc6e64736f6c63430006080033",
  "immutableReferences": {},
  "source": "// SPDX-License-Identifier: MIT\npragma solidity 0.6.8;\n\nimport \"@openzeppelin/contracts/math/SafeMath.sol\";\nimport \"@openzeppelin/contracts/token/ERC20/ERC20.sol\";\nimport \"./ISwappaPairV1.sol\";\nimport \"../interfaces/aave/ILendingPool.sol\";\nimport \"../interfaces/aave/ILendingPoolAddressesProvider.sol\";\n\ninterface IAToken {\n\tfunction redeem(uint256 _amount) external;\n}\n\ncontract PairAToken is ISwappaPairV1 {\n\tusing SafeMath for uint;\n\n\tfunction swap(\n\t\taddress input,\n\t\taddress output,\n\t\taddress to,\n\t\tbytes calldata data\n\t) external override {\n\t\t(address providerAddr, uint8 inputType) = parseData(data);\n\t\tuint inputAmount = ERC20(input).balanceOf(address(this));\n\t\tif (inputType == 1) {\n\t\t\t// Redeem AToken.\n\t\t\tIAToken(input).redeem(inputAmount);\n\t\t} else if (inputType == 2) {\n\t\t\t// Deposit CELO.\n\t\t\taddress lendingPoolAddr = ILendingPoolAddressesProvider(providerAddr).getLendingPool();\n\t\t\tILendingPool(lendingPoolAddr).deposit{value: inputAmount}(\n\t\t\t\t0xEeeeeEeeeEeEeeEeEeEeeEEEeeeeEeeeeeeeEEeE,\n\t\t\t\tinputAmount,\n\t\t\t\t0x0);\n\t\t} else if (inputType == 3) {\n\t\t\t// Deposit non CELO AToken.\n\t\t\taddress lendingPoolAddr = ILendingPoolAddressesProvider(providerAddr).getLendingPool();\n\t\t\taddress lendingPoolCoreAddr = ILendingPoolAddressesProvider(providerAddr).getLendingPoolCore();\n\t\t\trequire(\n\t\t\t\tERC20(input).approve(lendingPoolCoreAddr, inputAmount),\n\t\t\t\t\"PairAToken: approve failed!\");\n\t\t\tILendingPool(lendingPoolAddr).deposit(input, inputAmount, 0x0);\n\t\t}\n\t\trequire(\n\t\t\tERC20(output).transfer(to, inputAmount),\n\t\t\t\"PairAToken: transfer failed!\");\n\t}\n\n\tfunction parseData(bytes memory data) private pure returns (address providerAddr, uint8 inputType) {\n\t\trequire(data.length == 21, \"PairAToken: invalid data!\");\n\t\tinputType = uint8(data[20]);\n    assembly {\n      providerAddr := mload(add(data, 20))\n    }\n\t}\n\n\tfunction getOutputAmount(\n\t\taddress input,\n\t\taddress output,\n\t\tuint amountIn,\n\t\tbytes calldata data\n\t) external view override returns (uint amountOut) {\n\t\treturn amountIn;\n\t}\n\n\treceive() external payable {}\n}",
  "sourcePath": "/Users/dylanmooers/Code/OpenCeloProjects/Mobius/swappa/contracts/swappa/PairAToken.sol",
  "compiler": {
    "name": "solc",
    "version": "0.6.8+commit.0bbfe453.Emscripten.clang"
  },
  "schemaVersion": "3.4.4",
  "updatedAt": "2022-04-16T17:01:07.570Z",
  "devdoc": {
    "methods": {}
  },
  "userdoc": {
    "methods": {}
  }
}